:100000000A128A11E72F00308A000408840A820746
:10001000003445346E3474346534723420346E34B4
:1000200075346D346234653472343A3400342034BB
:040030003F34003425
:1006840083120313C701C801C501C601C301C40114
:10069400CB01CA010130C900080083160313870186
:1006A4008801F030860081138312031387018801C7
:1006B4000F308600080001300A128A11BA230A1288
:1006C4008A110D30F400FB30F300F30B672BF40BAD
:1006D400672B6C2B08000134023403340A340434CD
:1006E400053406340B340734083409340C340D341F
:1006F40000340E340F347E088A007F0882007D2384
:100704000A128A118000840A04087D060319003441
:10071400FF0A0319FE0A812BF40074030319952BB5
:100724007308C03E972B7308803EF5000030031811
:100734000130F6007508F70077080A128A11BA2307
:100744000800F2008312031307148710720888004C
:100754000715AC2BAD2B00008312031307110730D0
:10076400F1007D30F000F00BB52BF10BB52B080038
:10077400F20083120313071087107208880007150C
:10078400C32BC42B00008312031307110D30F10097
:10079400FB30F000F00BCC2BF10BCC2BD12B080051
:1007A400730884000A128A1103200A128A11003A7B
:1007B40003190800730884000A128A1103200A121C
:1007C4008A110A128A11A3230A128A110130F3072B
:1007D400D22BF401F501701CF52B7208F4070318F1
:1007E400F50A7308F50701300310F20DF30DFF3E0F
:1007F400031DF62B01300310F10CF00CFF3E031D1A
:10080400FD2B70087104031DED2B7508F1007408AD
:10081400F00008000230F5004530F400A930F30080
:10082400F30B122CF40B122CF50B122C192C383060
:100834000A128A11BA230A128A110C300A128A1176
:10084400BA230A128A1106300A128A11BA230A122A
:100854008A1101300A128A11BA230A128A110D3040
:10086400F400FB30F300F30B352CF40B352C3A2C4D
:1008740008000A128A114F230A128A110A128A11D5
:100884000C240A128A110A128A1142230A128A11AA
:100894000A128A1167250A128A1183120313B200FD
:1008A400320A0319682C32080A128A11FC260A1229
:1008B4008A110A128A113B260A128A11C330FD00DA
:1008C400CD30FC00FC0B642CFD0B642C4130FD008E
:1008D400EE30FC00FC0B6C2CFD0B6C2C00004A2C45
:1008E400F501F31F7C2CF209F309F20A0319F30A48
:1008F4000130F500F11F832CF009F109F00A031906
:10090400F10A700871040319AE2C0130F400F11BD4
:10091400952C01300310F00DF10DFF3E031D8C2CBE
:100924000130F407892C71087302031D9B2C700895
:100934007202031CA32C7008F2027108031CF30357
:10094400F30201300310F10CF00CFF3E031DA42C44
:100954000130F402031D952C75080319B62CF20915
:10096400F309F20A0319F30A7308F1007208F0009C
:100974000800F501F11FC52CF009F109F00A03196B
:10098400F10A0130F500F31FCE2CF209F309F20A43
:100994000319F30A0130F506F601F7017008710432
:1009A4000319032D0130F400F11BE22C0130031074
:1009B400F00DF10DFF3E031DD92C0130F407D62CA8
:1009C40001300310F60DF70DFF3E031DE32C7108F3
:1009D4007302031DEF2C70087202031CF82C7008BC
:1009E400F2027108031CF303F302761401300310BE
:1009F400F10CF00CFF3E031DF92C0130F402031D31
:100A0400E22C750803190B2DF609F709F60A0319E8
:100A1400F70A7708F1007608F0000800592D450818
:100A24004707C30046080318460A4807C4000800DD
:100A340045084702C3004608031C460A4802C4008E
:100A440008004808803AFF0080307F02031D2C2DE7
:100A54006430470203184F2D831203134608803A6B
:100A6400FF0080307F02031D392D643045020318D6
:100A74004F2D831203134808F1004708F00046087D
:100A8400F3004508F2000A128A11EB23710883125D
:100A94000313C4007008C30008000F30831203134B
:100AA400C3002730C4000800C301C4010800831236
:100AB40003134B082A3A0319232D013A0319112D64
:100AC400063A03191A2D562D0800333084002030BD
:100AD400F0001030F10083130008F200040AF30060
:100AE4007008840072088000040AF000730884000F
:100AF400F10B6D2D83120313B0010430300203187F
:100B0400C32D0130F000300A892D0310F00DFF3E93
:100B1400031D872D7008FF3A0F3986001030F0004E
:100B2400F00B922D000083120313B1011030F0007A
:100B3400310A9E2D0310F00DFF3E031D9C2D7008FD
:100B44000605031DBA2D0F3086003008F000023070
:100B54000310F00DFF3E031DAA2D20307007F10095
:100B640031087107F200720884008313000808003A
:100B74000130B10704303102031C982D0130B00755
:100B84007F2D0F308600FF30080083120313A80165
:100B9400A90178087904031DD42D30300A128A1172
:100BA400A3230800F91FE12D2D300A128A11A32373
:100BB4000A128A11F809F909F80A0319F90A7908D5
:100BC400803AFF0080307F02031DEA2D0130780255
:100BD400031C1C2E831203132808203E84000A30B1
:100BE400F0000030F1007908F3007808F2000A12EE
:100BF4008A1172240A128A117008303E831380000D
:100C0400013083120313A8070318A90A0030A907A7
:100C14000A30F0000030F1007908F3007808F2009F
:100C24000A128A11BB240A128A117108F900700889
:100C3400F800E12D831203132808FF3EAA002908B7
:100C44000318013EFF3EAB00AB1B08002A08203E00
:100C54008400831300080A128A11A3230A128A113A
:100C6400FF3083120313AA070318AB0AFF30AB0744
:100C7400262E831203134908031908000A128A1145
:100C84005D230A128A11E02E47084804031D522EE0
:100C94000130F3000A128A11D2230A128A11F82EA3
:100CA4004808F9004708F8000A128A11C7250A12F1
:100CB4008A11F82E4808F9004708F8000A128A1128
:100CC400C7250A128A110F30F3000A128A11D2239F
:100CD4000A128A11F82E4808F9004708F8000A1287
:100CE4008A11C7250A128A1120300A128A11A323F5
:100CF4000A128A11831203134B080A128A11A323BE
:100D04000A128A11831203134608803AFF008030C6
:100D14007F02031D8F2E01304502031CA32E2030B9
:100D24000A128A11A3230A128A1183120313460892
:100D3400F9004508F8000A128A11C7250A128A1117
:100D4400F82E0F30F3000A128A11D2230A128A11E4
:100D5400F82E4808F9004708F8000A128A11C72536
:100D64000A128A11831203134B080A128A11A3234D
:100D74000A128A11831203134608F9004508F80081
:100D84000A128A11C7250A128A113D300A128A11E1
:100D9400A3230A128A11F30102300A128A118E2344
:100DA4000A128A11831203134408F9004308F80055
:100DB4000A128A11C7250A128A11F82E8312031304
:100DC4004A08FA00FB017B08003A0319EA2EF82EC0
:100DD4007A08003A0319462E013A03195C2E033AA5
:100DE40003196D2E013A0319AB2EF82E8312031347
:100DF400C901080083120313A800D02F0A30280267
:100E040003182B2F4808803AFF0083307F02031D0C
:100E14000D2FE73047020318342F831203134808B9
:100E2400F1004708F0000A30F2000030F3000A1223
:100E34008A11EB230A128A118312031328087007FC
:100E4400C7000030031801307107C8000130C90021
:100E5400342F0D302806031D342F0A128A11422321
:100E64000A128A11831203134808803AFF00803063
:100E74007F02031D3F2F01304702031C08000A3084
:100E840083120313280603194F2F0B302806031966
:100E94004F2F0C302806031D08000A3028060319BA
:100EA400622F0B3028060319592F2A305A2F2D3060
:100EB400A2000030A3002308A1002208A000662F8E
:100EC4002B30A0000030A1002008CB000230CA0063
:100ED4000130C90008000A3028060319792F0B30A5
:100EE40028060319792F0C302806031D922F0A3087
:100EF400280603198C2F0B3028060319832F2A3058
:100F0400842F2D30A6000030A7002708A50026084E
:100F1400A400902F2B30A4000030A5002408672FD4
:100F24000D302806031D08000A128A114223080006
:100F34000A3028020318C32F4608803AFF00833082
:100F44007F02031DA72FE730450203180800831210
:100F540003134608F1004508F0000A30F20000309F
:100F6400F3000A128A11EB230A128A118312031363
:100F740028087007C5000030031801307107C60047
:100F84006A2F0E302806031D922F0A128A1110258B
:100F94000A128A11033083120313692F4A08F600D8
:100FA400F7017708003A0319D82FE62F7608003A9C
:100FB4000319002F013A03196D2F033A03199A2FCD
:100FC400013A0319962FE62F080083134330FD00DE
:100FD4000330FE006D30FF00333084000A128A11A2
:100FE4008123C301C401C501C601C701C801C901E8
:0C0FF400CA01CB0183010A128A113B2CB8
:02400E00723FFF
:00000001FF
