:100000000A128A11E82F740883120313FF00730881
:1000100084000A128A151B210A128A11003A031958
:1000200008007408FF00730884000A128A151B2157
:100030000A128A110A128A1591250A128A110130B0
:10004000F3070318F40A0030F40703280A128A158C
:100050004D250A128A117C282830F3008830F400DC
:100060000A128A1103200A128A11F30102300A12BD
:100070008A157E250A128A113A30F3008830F4007E
:100080000A128A1103200A128A118928FB30F30010
:100090008830F4000A128A1103200A128A11F3012F
:1000A00002300A128A157E250A128A11AF30F30037
:1000B0008830F4000A128A1103200A128A11892852
:1000C0006E30F3008830F4000A128A1103200A12FD
:1000D0008A11F30102300A128A157E250A128A114A
:1000E000ED30F3008830F4000A128A1103200A125E
:1000F0008A118928E5018928831203136508003ACB
:1001000003192C28013A03194628033A03196028D9
:100110007A280330F0000030F100831203136508E1
:10012000013EF200003003180130F3000A128A1574
:100130004B26700883120313E50008008312031393
:10014000A101F31FB028F009F109F209F309F00A3F
:100150000319F10A0319F20A0319F30A0130A10085
:10016000F71FBF28F409F509F609F709F40A03197E
:10017000F50A0319F60A0319F70A0130A10600303F
:10018000A5000030A4000030A3000030A2007308D6
:10019000720471047004031912290130A000F31BCA
:1001A000DD280130F8000310F00DF10DF20DF30D14
:1001B000F80BD3280130A007CF280130F800031036
:1001C000A20DA30DA40DA50DF80BDF28730877026F
:1001D000031DF42872087602031DF42871087502C5
:1001E000031DF42870087402031C05297008F4022A
:1001F0007108031C710FF5027208031C720FF602DE
:100200007308031C730FF702221401300310F30C60
:10021000F20CF10CF00CFF3E031D06290130A00288
:10022000031DDD28210803192029A209A309A40917
:10023000A509A20A0319A30A0319A40A0319A50A06
:100240002508F3002408F2002308F1002208F0003A
:10025000080083120313B601B701290828042704F4
:100260002604031D382930300A128A15912508000A
:10027000A91F4D292D300A128A1591250A128A11BB
:1002800083120313A609A709A809A909A60A031935
:10029000A70A0319A80A0319A90AA91BA42929084E
:1002A000031D5E292808031D5E292708031D5E29FA
:1002B00001302602031D5C29031CA42983120313A9
:1002C00036082A3E84000030F3000030F20000308F
:1002D000F1000A30F0002908F7002808F600270886
:1002E000F5002608F4000A128A158B270A128A11D3
:1002F0007008303E83138000013083120313B60769
:100300000318B70A0030B7070030F3000030F200DE
:100310000030F1000A30F0002908F7002808F60044
:100320002708F5002608F4000A128A119E200A12F6
:100330008A11730883120313A9007208A8007108B8
:10034000A7007008A6004D29831203133608FF3E4C
:10035000B80037080318013EFF3EB900B91B08007A
:1003600038082A3E8400831300080A128A15912552
:100370000A128A11FF3083120313B8070318B90A4F
:10038000FF30B907AE29582A26082A07AF000030E7
:10039000031801302707B1010318B10A2B07B00079
:1003A0000318B10A28083107B2010318B20A2C0752
:1003B000B1000318B20A290832072D07B20032082B
:1003C000A9003108A8003008A7002F08A6000800DF
:1003D0002608AF002708B0002808B1002908B2009D
:1003E0002A08AF022B08031C2B0FF729F829B002AB
:1003F0002C08031C2C0FFD29FE29B1022D08031C1B
:100400002D0F032A042AB2023208A9003108A800DD
:100410003008A7002F08A60008002908F3002808C4
:10042000F2002708F1002608F0002D08F7002C083C
:10043000F6002B08F5002A08F4000A128A150C268B
:10044000730883120313A9007208A8007108A7009B
:100450007008A60008002D082C042B042A04031D94
:100460003A2A0030A9000030A8000030A700003070
:10047000A60008002D08F3002C08F2002B08F1005C
:100480002A08F0002908F7002808F6002708F500D8
:100490002608F4000A128A119E207308831203139F
:1004A000A9007208A8007108A7007008A60008003B
:1004B000831203132E082A3A03190D2A013A03194D
:1004C000C429063A0319E829023A03192B2A312ACA
:1004D00008000430831203136706031D742A66089C
:1004E0000A128A15942608000A128A154D250A1246
:1004F0008A11652B1230F3008930F4000A128A1138
:1005000003200A128A11F30102300A128A157E258D
:100510000A128A110730F3008930F4000A128A1196
:10052000032008006808031DB12A6408A9006308B5
:10053000A8006208A7006108A6000A128A112921F2
:100540000A128A11F30102300A128A157E250A1254
:100550008A119F30F3008830F4000A128A110320B8
:1005600008006408A9006308A8006208A7006108E1
:10057000A6000A128A1129210A128A1120300A12B1
:100580008A1591250A128A118312031368080A1228
:100590008A1591250A128A1120300A128A1591258E
:1005A0000A128A11831203136008A9005F08A800C9
:1005B0005E08A7005D08A6000A128A1129210A1206
:1005C0008A11F30102300A128A157E250A128A1155
:1005D0000030F3008830F4000A128A11032008006A
:1005E0006408A9006308A8006208A7006108A600C3
:1005F0000A128A1129210A128A1120300A128A1538
:1006000091250A128A118312031368080A128A15A7
:1006100091250A128A1120300A128A1591250A1290
:100620008A113F300A128A1591250A128A11F301A4
:1006300002300A128A157E250A128A111430F3003C
:100640008830F4000A128A11032008006408A90007
:100650006308A8006208A7006108A6000A128A11B0
:1006600029210A128A118312031368080A128A15B3
:1006700091250A128A11831203136008A9005F08EA
:10068000A8005E08A7005D08A6000A128A112921A9
:100690000A128A113D300A128A1591250A128A110E
:1006A000F30102300A128A157E250A128A1183127A
:1006B00003135C08A9005B08A8005A08A7005908A2
:1006C000A6000A128A112921080083120313670861
:1006D000FB00FC017C08003A03196F2B802B7B0880
:1006E000003A03197A2A013A0319922A033A0319A4
:1006F000F02A013A0319262B073A0319802B802B85
:100700000800032D0130F900A91BC72B2908031D80
:10071000952B2808031D952B2708031D952B0130C9
:100720002602031D932B031CC72BFF3083120313D8
:10073000AF007F30B0000030B1000030B2002608BA
:10074000AF022708031C270FA62BA72BB0022808EF
:10075000031C280FAC2BAD2BB1022908031C290F59
:10076000B22BB32BB2023208803AFF002D08803A38
:100770007F02031DC52B2C083102031DC52B2B083E
:100780003002031DC52B2A082F02031CFB2B8312EA
:100790000313A91FFA2B0030AF008030B000FF30E8
:1007A000B100FF30B2002608AF022708031C270F54
:1007B000DA2BDB2BB0022808031C280FE02BE12BDF
:1007C000B1022908031C290FE62BE72BB2022D08E2
:1007D000803AFF003208803A7F02031DF92B31086E
:1007E0002C02031DF92B30082B02031DF92B2F08B7
:1007F0002A020318F901790808000130FA00A91B40
:10080000512C2908031D102C2808031D102C270823
:10081000031D102C01302602031D0E2C031C512C2D
:10082000831203132A09AF002B09B0002C09B10071
:100830002D09B200AF0A0319B00A0319B10A03194E
:10084000B20AFF30B3007F30B4000030B500003092
:10085000B6002608B3022708031C270F302C312CC2
:10086000B4022808031C280F362C372CB50229089F
:10087000031C290F3C2C3D2CB6023608803AFF00A1
:100880003208803A7F02031D4F2C31083502031DC8
:100890004F2C30083402031D4F2C2F083302031C49
:1008A000942C83120313A91F932C0030AF008030C7
:1008B000B000FF30B100FF30B2002608AF022708B9
:1008C000031C270F642C652CB0022808031C280F7A
:1008D0006A2C6B2CB1022908031C290F702C712C77
:1008E000B2022A09B3002B09B4002C09B5002D0966
:1008F000B600B30A0319B40A0319B50A0319B60AF4
:100900003608803AFF003208803A7F02031D922C9D
:1009100031083502031D922C30083402031D922C3D
:100920002F0833020318FA017A080800FB0129088E
:100930002804270426040319F52C2908F3002808A5
:10094000F2002708F1002608F0000030F700003020
:10095000F6007F30F500FF30F4000A128A119E2065
:100960000A128A117308803AFF00831203132D08BC
:10097000803A7F02031DC62C2C087202031DC62C70
:100980002B087102031DC62C2A087002031CF32CCD
:100990002908F3002808F2002708F1002608F000D3
:1009A000FF30F700FF30F6008030F5000030F40033
:1009B0000A128A119E200A128A11831203132D082B
:1009C000803AFF007308803A7F02031DF12C720801
:1009D0002C02031DF12C71082B02031DF12C700851
:1009E0002A020318F52C0130FB007B0808002D08B3
:1009F0002C042B042A04031DFF2C013008000030B6
:100A0000080000300800831203132E082A3A031945
:100A1000962C013A0319822B063A0319FD2B023A50
:100A20000319F72C012D080083120313D100CE2FD8
:100A30000A30510203182C2D5108B700B801B90132
:100A4000BA013A08E4003908E3003808E200370840
:100A5000E1000130E70008000D305106031D4A2D6A
:100A60000030DC000030DB000030DA000030D9005C
:100A70005C08E0005B08DF005A08DE005908DD0072
:100A80006008E4005F08E3005E08E2005D08E10042
:100A9000E80108000F305106031D08000A128A11F0
:100AA00026200A128A11333083120313B900BB3097
:100AB000B800DF30B700B70B5B2DB80B5B2DB90B5F
:100AC0005B2D08000A3051020318062E6808031D2A
:100AD000BB2DE41B7B2D6408031DB42D6308031D8F
:100AE000B42D0C306202031D792DCC306102031D40
:100AF000792D0318B42D831203135108B700B801E0
:100B0000B901BA016408F3006308F2006208F10059
:100B10006108F0000030F7000030F6000030F5000A
:100B20000A30F4000A128A150C260A128A1170087B
:100B300083120313B70771080318710FA02DA12D9D
:100B4000B80772080318720FA62DA72DB9077308EE
:100B50000318730ABA073A08E4003908E3003808B2
:100B6000E2003708E1000800013083120313E600B9
:100B70000430E7000800E01BCD2D6008031DB42DF4
:100B80005F08031DB42D0C305E02031DCB2DCC304D
:100B90005D02031DCB2D0318B42D831203135108DE
:100BA000B700B801B901BA016008F3005F08F200AC
:100BB0005E08F1005D08F0000030F7000030F6003C
:100BC0000030F5000A30F4000A128A150C260A12C9
:100BD0008A11700883120313B70771080318710F85
:100BE000F22DF32DB80772080318720FF82DF92DA6
:100BF000B90773080318730ABA073A08E0003908FE
:100C0000DF003808DE003708DD0008000A30510236
:100C1000031C0E2E0D305102031C122E0F305106F4
:100C2000031DC82E6808031D3E2E0A305106031905
:100C3000352E0B30510603192C2E0C30510603199A
:100C4000232E2F30242E2A30BF000030C000400851
:100C5000BE003F08BD00302E2D30BD000030BE006C
:100C60003E08BC003D08BB00392E2B30BB000030D5
:100C7000BC003B08E8000230E70008006408A90057
:100C80006308A8006208A7006108A6006008AD001C
:100C90005F08AC005E08AB005D08AA006808AE0003
:100CA0000A128A1181230A128A11003A03196F2E3F
:100CB0002F30831203136806031D642E60085F043F
:100CC0005E045D040319662E0130672E0230C100F8
:100CD0000030C2004108E6000430E700080083123B
:100CE00003136408A9006308A8006208A70061084C
:100CF000A6006008AD005F08AC005E08AB005D08B0
:100D0000AA006808AE000A128A11C3210A128A11C9
:100D1000831203132908DC002808DB002708DA0007
:100D20002608D9005C08E4005B08E3005A08E200EA
:100D30005908E1000030E0000030DF000030DE0044
:100D40000030DD000A3051060319C22E0B30510667
:100D50000319B92E0C3051060319B02E2F30B12EC5
:100D60002A30C7000030C8004808C6004708C50040
:100D7000BD2E2D30C5000030C6004608C400450811
:100D8000C300C62E2B30C3000030C40043083A2EE7
:100D90000E305106031D212F68080319212F640806
:100DA000A9006308A8006208A7006108A6006008FF
:100DB000AD005F08AC005E08AB005D08AA006808E3
:100DC000AE000A128A1181230A128A11003A03190D
:100DD000FD2E2F30831203136806031DF52E6008C5
:100DE0005F045E045D040319F72E0130F82E023013
:100DF000C9000030CA0049086B2E8312031364082F
:100E0000A9006308A8006208A7006108A60060089E
:100E1000AD005F08AC005E08AB005D08AA00680882
:100E2000AE000A128A11C321831203132908DC00C1
:100E30002808DB002708DA002608D9000330E7007D
:100E400008000D305106031D08000030DC000030A2
:100E5000DB000030DA000030D9005C08E0005B08FD
:100E6000DF005A08DE005908DD006008E4005F0872
:100E7000E3005E08E2005D08E100E801E701080028
:100E80000A3051020318522F5108B700B801B901B6
:100E9000BA013A08E0003908DF003808DE003708F8
:100EA000DD00292D0D305106031D08000030E00043
:100EB0000030DF000030DE000030342F0A305102F5
:100EC000031C662F0D305102031C6A2F0F30510690
:100ED000031DA12F5C08E4005B08E3005A08E20050
:100EE0005908E1000A3051060319922F0B305106C0
:100EF0000319892F0C3051060319802F2F30812FB1
:100F00002A30CF000030D0005008CE004F08CD006E
:100F10008D2F2D30CD000030CE004E08CC004D0876
:100F2000CB00962F2B30CB000030CC004B08E800D4
:100F30000030E0000030DF000030DE000030DD0077
:100F40003B2E0D3051060319252F0A30510203188C
:100F500008005108B700B801B901BA013A08E40025
:100F60003908E3003808E2003708E1000030DC000F
:100F70000030DB000030DA000030D9005C08E0000F
:100F80005B08DF005A08DE005908DD00E801292D62
:100F90000D305106031D0800E601252F6708B70034
:100FA000B8013808003A0319D62FE72F3708003A5E
:100FB0000319182D013A0319622D033A0319402F22
:100FC000013A03195E2F073A0319C82FE72F0800CB
:100FD0008313B030FD000D30FE005D30FF00A03007
:100FE00084000A128A1571250A128A11553084006C
:100FF00069300A128A15372583010A128A15DD2EF7
:101000005034723465347334733420343D342034B6
:101010006F347234203463346F346E347434693412
:101020006E3475346534003445346E34743465344C
:10103000723420347334653463346F346E34643402
:1010400020346E3475346D34623465347234003457
:101050004B346534793473343A34203430342D349D
:10106000393420344E3475346D346234653472341E
:10107000733400342B342C342D342C342A342C3457
:101080002F3420344F347034653472346134743406
:101090006F347234733400345034723465347334C2
:1010A0007334203461346E34793420346B346534D5
:1010B00079342E342E342E34003450347234653466
:1010C0007334733420344334203474346F34203414
:1010D00063346C34653461347234003443346834BE
:1010E000613469346E3420346F3470346534723452
:1010F0006134743469346F346E347334003445347D
:10110000523452344F3452343A34203444346934F3
:10111000763420346234793420343034003453341B
:101120006D346134723474342034433461346C343B
:1011300063342034763432342E3430340034453441
:101140006E3474346534723420346F3470346534E2
:1011500072346134743469346F346E34003443341F
:10116000203443346C346534613472342C3420348C
:1011700023342034483465346C34703400344534BE
:10118000523452344F3452343A3420344F3476345B
:101190006534723466346C346F34773400344534DB
:1011A000523452344F3452343A34203449346E3449
:1011B000763461346C3469346434003445345234E8
:1011C00052344F3452343A34203455346E346B3404
:1011D0006E346F3477346E34003461346634743472
:1011E00065347234203472346534733475346C343D
:1011F0007434733400343D342034433461346C34FB
:10120000633475346C34613474346534003423349D
:10121000203466346F3472342034683465346C346E
:1012200070340034523465346134643479342E348B
:101230002E342E340034FF1B252983137F18831787
:101240000008840A0319FF0A08007F087F398A0012
:0A1250000408840A0319FF0A820053
:101A6E0064008001840A0406031900340406382D2C
:101A7E008316031387018801F030860081138312C9
:101A8E000313870188010F308600080001300A1207
:101A9E008A15A8250A128A150D30F400FB30F300C2
:101AAE00F30B572DF40B572D5C2D08000134023427
:101ABE0003340A340434053406340B340734083442
:101ACE0009340C340D3400340E340F347E088A0081
:101ADE007F0882006D250A128A158000840A040888
:101AEE007D0603190034FF0A0319FE0A712DF40056
:101AFE0074030319852D7308C03E872D7308803E2D
:101B0E00F500003003180130F60075080A128A1528
:101B1E00A8250800F2008312031307148710720819
:101B2E00880007159A2D9B2D0000831203130711B1
:101B3E000730F1007D30F000F00BA32DF10BA32D3B
:101B4E000800F20083120313071087107208880032
:101B5E000715B12DB22D00008312031307110D309E
:101B6E00F100FB30F000F00BBA2DF10BBA2DBF2DAA
:101B7E0008000A128A154D250A128A158F30F300B5
:101B8E008830F4000A128A1103200A128A15F30112
:101B9E0002300A128A157E250A128A154C30F3007D
:101BAE008830F4000A128A11032008000230F50072
:101BBE004530F400A930F300F30BE32DF40BE32DC5
:101BCE00F50BE32DEA2D38300A128A15A8250A12D4
:101BDE008A150C300A128A15A8250A128A150630A3
:101BEE000A128A15A8250A128A1501300A128A15B8
:101BFE00A8250A128A150D30F400FB30F300F30B02
:101C0E00062EF40B062E0B2E08000030FC000030C2
:101C1E00FB000030FA000030F900701C2A2E740808
:101C2E00F907750803110318013E031DFA0776081C
:101C3E0003110318013E031DFB0777080311031858
:101C4E00013E031DFC070130F8000310F40DF50DE5
:101C5E00F60DF70DF80B2C2E01300310F30CF20CD1
:101C6E00F10CF00CFF3E031D342E73087204710448
:101C7E007004031D142E7C08F3007B08F2007A0812
:101C8E00F1007908F0000800F501F31F552EF20956
:101C9E00F309F20A0319F30A0130F500F11F5C2E65
:101CAE00F009F109F00A0319F10A70087104031919
:101CBE00872E0130F400F11B6E2E01300310F00D53
:101CCE00F10DFF3E031D652E0130F407622E7108E3
:101CDE007302031D742E70087202031C7C2E700892
:101CEE00F2027108031CF303F30201300310F10C2E
:101CFE00F00CFF3E031D7D2E0130F402031D6E2EEF
:101D0E00750803198F2EF209F309F20A0319F30A63
:101D1E007308F1007208F0000800F7000A128A1525
:101D2E004D250A128A15C32EBF30F3008830F400F9
:101D3E000A128A1103200A128A15CE2E7F30F30062
:101D4E008830F4000A128A1103200A128A15CE2E48
:101D5E00CF30F3008830F4000A128A1103200A12E1
:101D6E008A15CE2EDE30F3008830F4000A128A1166
:101D7E0003200A128A15CE2E7708013A03199B2EDC
:101D8E00033A0319A52E013A0319AF2EB92EF3010A
:101D9E0002300A128A157E250A128A155D30F3006A
:101DAE008830F4000A128A11032008000A128A15DC
:101DBE003F250A128A150A128A15DD250A128A157E
:101DCE000A128A15C0250A128A153330831203139C
:101DDE00D400BB30D300DF30D200D20BF42ED30BA5
:101DEE00F42ED40BF42E83120313E7010A128A1574
:101DFE002B270A128A15FD007D0A03191F2F7D0855
:101E0E000A128A1114250A128A150A128A116922D7
:101E1E000A128A15073083120313D4005830D300E8
:101E2E005930D200D20B192FD30B192FD40B192FD7
:101E3E00413083120313D300ED30D200D20B252F85
:101E4E00D30B252F2A2FFD2EA03084002030F0003A
:101E5E001030F10083130008F200040AF30070083A
:101E6E00840072088000040AF00073088400F10BED
:101E7E00312F83120313B001043030020318872F61
:101E8E000130F000300A4D2F0310F00DFF3E031D00
:101E9E004B2F7008FF3A0F3986001030F000F00B10
:101EAE00562F000083120313B1011030F000310AD7
:101EBE00622F0310F00DFF3E031D602F7008060504
:101ECE00031D7E2F0F3086003008F0000230031005
:101EDE00F00DFF3E031D6E2F20307007F10031080C
:101EEE007107F200720884008313000808000130A5
:101EFE00B10704303102031C5C2F0130B007432FB1
:101F0E000F308600FF300800FA01F71F9B2FF409EF
:101F1E00F509F609F709F40A0319F50A0319F60A81
:101F2E000319F70A0130FA00F31FA82FF009F1097F
:101F3E00F209F309F00A0319F10A0319F20A031957
:101F4E00F30A73087204710470040319E92F013047
:101F5E00F900F31BBE2F0130F8000310F00DF10D48
:101F6E00F20DF30DF80BB42F0130F907B02F7308F3
:101F7E007702031DCC2F72087602031DCC2F710839
:101F8E007502031DCC2F70087402031CDC2F700821
:101F9E00F4027108031C710FF5027208031C720F14
:101FAE00F6027308031C730FF70201300310F30CD3
:101FBE00F20CF10CF00CFF3E031DDD2F0130F90287
:101FCE00031DBE2F7A080319F72FF409F509F60938
:101FDE00F709F40A0319F50A0319F60A0319F70AA1
:101FEE007708F3007608F2007508F1007408F00027
:021FFE000800D9
:02400E00723FFF
:00000001FF
